{
  "transactions": [
    {
      "hash": "0xbc96c35a9cd424387832f70aeca00a5331f0f2066992dd02072f49e10334555e",
      "transactionType": "CREATE",
      "contractName": "FakeUSDC",
      "contractAddress": "0x72338d8859884b4ceeae68651e8b8e49812f2fee",
      "function": null,
      "arguments": null,
      "transaction": {
        "from": "0x679a295b982e75c1060bce840ca8044ffd340eaf",
        "gas": "0xd3e58",
        "value": "0x0",
        "input": "0x60806040523461032a57604080519081016001600160401b0381118282101761023d576040908152600d82526c2330b5b2902aa9a21021b7b4b760991b602083015280519081016001600160401b0381118282101761023d576040526005815264665553444360d81b602082015281516001600160401b03811161023d57600354600181811c91168015610320575b602082101461021f57601f81116102bd575b50602092601f821160011461025c57928192935f92610251575b50508160011b915f199060031b1c1916176003555b80516001600160401b03811161023d57600454600181811c91168015610233575b602082101461021f57601f81116101bc575b50602091601f821160011461015c579181925f92610151575b50508160011b915f199060031b1c1916176004555b600580546001600160a01b031916331790556040516109b8908161032f8239f35b015190505f8061011b565b601f1982169260045f52805f20915f5b8581106101a45750836001951061018c575b505050811b01600455610130565b01515f1960f88460031b161c191690555f808061017e565b9192602060018192868501518155019401920161016c565b60045f527f8a35acfbc15ff81a39ae7d344fd709f28e8600b4aa8c65c6b64bfe7fe36bd19b601f830160051c81019160208410610215575b601f0160051c01905b81811061020a5750610102565b5f81556001016101fd565b90915081906101f4565b634e487b7160e01b5f52602260045260245ffd5b90607f16906100f0565b634e487b7160e01b5f52604160045260245ffd5b015190505f806100ba565b601f1982169360035f52805f20915f5b8681106102a5575083600195961061028d575b505050811b016003556100cf565b01515f1960f88460031b161c191690555f808061027f565b9192602060018192868501518155019401920161026c565b60035f527fc2575a0e9e593c00f959f8c92f12db2869c3395a3b0502d05e2516446f71f85b601f830160051c81019160208410610316575b601f0160051c01905b81811061030b57506100a0565b5f81556001016102fe565b90915081906102f5565b90607f169061008e565b5f80fdfe6080806040526004361015610012575f80fd5b5f3560e01c90816306fdde031461072157508063095ea7b31461069257806318160ddd1461067557806323b872dd146104ff578063313ce567146104e457806340c10f191461038457806370a08231146103405780638da5cb5b1461030d57806395d89b4114610138578063a9059cbb146101075763dd62ed3e14610095575f80fd5b34610103576040600319360112610103576100ae61087c565b73ffffffffffffffffffffffffffffffffffffffff6100cb61089f565b91165f52600160205273ffffffffffffffffffffffffffffffffffffffff60405f2091165f52602052602060405f2054604051908152f35b5f80fd5b346101035760406003193601126101035761012d61012361087c565b60243590336108c2565b602060405160018152f35b34610103575f600319360112610103576040515f600454908160011c60018316928315610303575b6020821084146102d657818552849390811561027657506001146101fc575b5003601f017fffffffffffffffffffffffffffffffffffffffffffffffffffffffffffffffe01681019067ffffffffffffffff8211818310176101cf576101cb82918260405282610834565b0390f35b7f4e487b71000000000000000000000000000000000000000000000000000000005f52604160045260245ffd5b60045f90815291507f8a35acfbc15ff81a39ae7d344fd709f28e8600b4aa8c65c6b64bfe7fe36bd19b5b81831061025a57505081016020017fffffffffffffffffffffffffffffffffffffffffffffffffffffffffffffffe061017f565b6020919350806001915483858801015201910190918392610226565b7fffffffffffffffffffffffffffffffffffffffffffffffffffffffffffffff001660208581019190915291151560051b840190910191507fffffffffffffffffffffffffffffffffffffffffffffffffffffffffffffffe0905061017f565b7f4e487b71000000000000000000000000000000000000000000000000000000005f52602260045260245ffd5b90607f1690610160565b34610103575f60031936011261010357602073ffffffffffffffffffffffffffffffffffffffff60055416604051908152f35b346101035760206003193601126101035773ffffffffffffffffffffffffffffffffffffffff61036e61087c565b165f525f602052602060405f2054604051908152f35b346101035760406003193601126101035761039d61087c565b6024359073ffffffffffffffffffffffffffffffffffffffff6005541633036104865773ffffffffffffffffffffffffffffffffffffffff1690811561045a576002549080820180921161042d5760207fddf252ad1be2c89b69c2b068fc378daa952ba7f163c4a11628f55a4df523b3ef915f9360025584845283825260408420818154019055604051908152a3005b7f4e487b71000000000000000000000000000000000000000000000000000000005f52601160045260245ffd5b7fec442f05000000000000000000000000000000000000000000000000000000005f525f60045260245ffd5b60646040517f08c379a000000000000000000000000000000000000000000000000000000000815260206004820152601360248201527f4f6e6c79206f776e65722063616e206d696e74000000000000000000000000006044820152fd5b34610103575f60031936011261010357602060405160068152f35b346101035760606003193601126101035761051861087c565b61052061089f565b6044359073ffffffffffffffffffffffffffffffffffffffff831692835f52600160205260405f2073ffffffffffffffffffffffffffffffffffffffff33165f5260205260405f20547fffffffffffffffffffffffffffffffffffffffffffffffffffffffffffffffff811061059c575b5061012d93506108c2565b8381106106415784156106155733156105e95761012d945f52600160205260405f2073ffffffffffffffffffffffffffffffffffffffff33165f526020528360405f209103905584610591565b7f94280d62000000000000000000000000000000000000000000000000000000005f525f60045260245ffd5b7fe602df05000000000000000000000000000000000000000000000000000000005f525f60045260245ffd5b83907ffb8f41b2000000000000000000000000000000000000000000000000000000005f523360045260245260445260645ffd5b34610103575f600319360112610103576020600254604051908152f35b34610103576040600319360112610103576106ab61087c565b6024359033156106155773ffffffffffffffffffffffffffffffffffffffff169081156105e957335f52600160205260405f20825f526020528060405f20556040519081527f8c5be1e5ebec7d5bd14f71427d1e84f3dd0314c0f7b2291e5b200ac8c7c3b92560203392a3602060405160018152f35b34610103575f600319360112610103575f600354908160011c6001831692831561082a575b6020821084146102d657818552849390811561027657506001146107b0575003601f017fffffffffffffffffffffffffffffffffffffffffffffffffffffffffffffffe01681019067ffffffffffffffff8211818310176101cf576101cb82918260405282610834565b60035f90815291507fc2575a0e9e593c00f959f8c92f12db2869c3395a3b0502d05e2516446f71f85b5b81831061080e57505081016020017fffffffffffffffffffffffffffffffffffffffffffffffffffffffffffffffe061017f565b60209193508060019154838588010152019101909183926107da565b90607f1690610746565b7fffffffffffffffffffffffffffffffffffffffffffffffffffffffffffffffe0601f602060409481855280519182918282880152018686015e5f8582860101520116010190565b6004359073ffffffffffffffffffffffffffffffffffffffff8216820361010357565b6024359073ffffffffffffffffffffffffffffffffffffffff8216820361010357565b73ffffffffffffffffffffffffffffffffffffffff1690811561098c5773ffffffffffffffffffffffffffffffffffffffff1691821561045a57815f525f60205260405f205481811061095a57817fddf252ad1be2c89b69c2b068fc378daa952ba7f163c4a11628f55a4df523b3ef92602092855f525f84520360405f2055845f525f825260405f20818154019055604051908152a3565b827fe450d38c000000000000000000000000000000000000000000000000000000005f5260045260245260445260645ffd5b7f96c6fd1e000000000000000000000000000000000000000000000000000000005f525f60045260245ffd",
        "nonce": "0x15e",
        "chainId": "0x14a34"
      },
      "additionalContracts": [],
      "isFixedGasLimit": false
    },
    {
      "hash": "0xd870296c331d0d74bfa829b72a0de6e18c7e3d79758a474bcfd319a86ccedc64",
      "transactionType": "CALL",
      "contractName": "FakeUSDC",
      "contractAddress": "0x72338d8859884b4ceeae68651e8b8e49812f2fee",
      "function": "mint(address,uint256)",
      "arguments": [
        "0xabcb279FD6b3e07cD4943044bEF410115981e8BB",
        "1000000000000"
      ],
      "transaction": {
        "from": "0x679a295b982e75c1060bce840ca8044ffd340eaf",
        "to": "0x72338d8859884b4ceeae68651e8b8e49812f2fee",
        "gas": "0x17aaa",
        "value": "0x0",
        "input": "0x40c10f19000000000000000000000000abcb279fd6b3e07cd4943044bef410115981e8bb000000000000000000000000000000000000000000000000000000e8d4a51000",
        "nonce": "0x15f",
        "chainId": "0x14a34"
      },
      "additionalContracts": [],
      "isFixedGasLimit": false
    },
    {
      "hash": "0x804cc07649500fdefd6edca38e4b5fa94d26db867dbbbf2d103e363f0ddaa7f1",
      "transactionType": "CALL",
      "contractName": "FakeUSDC",
      "contractAddress": "0x72338d8859884b4ceeae68651e8b8e49812f2fee",
      "function": "mint(address,uint256)",
      "arguments": [
        "0xabceBe28BBE3bc66e81C46Cd5e9A7dDE15033783",
        "1000000000000"
      ],
      "transaction": {
        "from": "0x679a295b982e75c1060bce840ca8044ffd340eaf",
        "to": "0x72338d8859884b4ceeae68651e8b8e49812f2fee",
        "gas": "0x12f40",
        "value": "0x0",
        "input": "0x40c10f19000000000000000000000000abcebe28bbe3bc66e81c46cd5e9a7dde15033783000000000000000000000000000000000000000000000000000000e8d4a51000",
        "nonce": "0x160",
        "chainId": "0x14a34"
      },
      "additionalContracts": [],
      "isFixedGasLimit": false
    },
    {
      "hash": "0xe124ed2e5ec75dd2a8fc3f7691970a62d3fb7b8a5884c1dd90ffa646b0612b44",
      "transactionType": "CALL",
      "contractName": "FakeUSDC",
      "contractAddress": "0x72338d8859884b4ceeae68651e8b8e49812f2fee",
      "function": "mint(address,uint256)",
      "arguments": [
        "0xabc04F8807351b3BBc169eACb2624Fc331ED2ce6",
        "1000000000000"
      ],
      "transaction": {
        "from": "0x679a295b982e75c1060bce840ca8044ffd340eaf",
        "to": "0x72338d8859884b4ceeae68651e8b8e49812f2fee",
        "gas": "0x12f40",
        "value": "0x0",
        "input": "0x40c10f19000000000000000000000000abc04f8807351b3bbc169eacb2624fc331ed2ce6000000000000000000000000000000000000000000000000000000e8d4a51000",
        "nonce": "0x161",
        "chainId": "0x14a34"
      },
      "additionalContracts": [],
      "isFixedGasLimit": false
    },
    {
      "hash": "0xff4fdbb9f3792d5ff64cae9291616c23821cb12464e82c52e0885fc6a7971658",
      "transactionType": "CALL",
      "contractName": "FakeUSDC",
      "contractAddress": "0x72338d8859884b4ceeae68651e8b8e49812f2fee",
      "function": "mint(address,uint256)",
      "arguments": [
        "0xabc036B5B7a10546a95963680Cb0A45D976Fdf48",
        "1000000000000"
      ],
      "transaction": {
        "from": "0x679a295b982e75c1060bce840ca8044ffd340eaf",
        "to": "0x72338d8859884b4ceeae68651e8b8e49812f2fee",
        "gas": "0x12f40",
        "value": "0x0",
        "input": "0x40c10f19000000000000000000000000abc036b5b7a10546a95963680cb0a45d976fdf48000000000000000000000000000000000000000000000000000000e8d4a51000",
        "nonce": "0x162",
        "chainId": "0x14a34"
      },
      "additionalContracts": [],
      "isFixedGasLimit": false
    }
  ],
  "receipts": [
    {
      "status": "0x1",
      "cumulativeGasUsed": "0x527efa",
      "logs": [],
      "logsBloom": "0x00000000000000000000000000000000000000000000000000000000000000000000000000000000000000000000000000000000000000000000000000000000000000000000000000000000000000000000000000000000000000000000000000000000000000000000000000000000000000000000000000000000000000000000000000000000000000000000000000000000000000000000000000000000000000000000000000000000000000000000000000000000000000000000000000000000000000000000000000000000000000000000000000000000000000000000000000000000000000000000000000000000000000000000000000000000",
      "type": "0x2",
      "transactionHash": "0xbc96c35a9cd424387832f70aeca00a5331f0f2066992dd02072f49e10334555e",
      "transactionIndex": "0xb",
      "blockHash": "0x0000000000000000000000000000000000000000000000000000000000000000",
      "blockNumber": "0x23410aa",
      "gasUsed": "0xa2ff5",
      "effectiveGasPrice": "0x124f80",
      "blobGasUsed": "0x775c8",
      "from": "0x679a295b982e75c1060bce840ca8044ffd340eaf",
      "to": null,
      "contractAddress": "0x72338d8859884b4ceeae68651e8b8e49812f2fee",
      "daFootprintGasScalar": "0x138",
      "l1BaseFeeScalar": "0x44d",
      "l1BlobBaseFee": "0x411ef21",
      "l1BlobBaseFeeScalar": "0xa118b",
      "l1Fee": "0x181a777fd",
      "l1GasPrice": "0x4277f9d3",
      "l1GasUsed": "0x61fa"
    },
    {
      "status": "0x1",
      "cumulativeGasUsed": "0x736567",
      "logs": [
        {
          "address": "0x72338d8859884b4ceeae68651e8b8e49812f2fee",
          "topics": [
            "0xddf252ad1be2c89b69c2b068fc378daa952ba7f163c4a11628f55a4df523b3ef",
            "0x0000000000000000000000000000000000000000000000000000000000000000",
            "0x000000000000000000000000abcb279fd6b3e07cd4943044bef410115981e8bb"
          ],
          "data": "0x000000000000000000000000000000000000000000000000000000e8d4a51000",
          "blockHash": "0x2bcbefd49a457d76b9d87de1376f7032dffaf1d613227a05aca84d344adc4bcd",
          "blockNumber": "0x23410aa",
          "blockTimestamp": "0x697b8034",
          "transactionHash": "0xd870296c331d0d74bfa829b72a0de6e18c7e3d79758a474bcfd319a86ccedc64",
          "transactionIndex": "0xf",
          "logIndex": "0x6b",
          "removed": false
        }
      ],
      "logsBloom": "0x00000000000000000000000000000000000000000000000000000000000000000000000000000000000000000000000000000000000000000000000000000008000000000000000000000008000000000000008000000000000000000000000000000000020000000000000010000800000000040000000000000010000000000000000000000000000000000000000000000000000000000000000000000080000000000000000000000001000000000000000000000000000000000000000000000002000000000000000000000000000000000000000000000000000020000000000000000000000000000000000000000000000000000000000000000000",
      "type": "0x2",
      "transactionHash": "0xd870296c331d0d74bfa829b72a0de6e18c7e3d79758a474bcfd319a86ccedc64",
      "transactionIndex": "0xf",
      "blockHash": "0x2bcbefd49a457d76b9d87de1376f7032dffaf1d613227a05aca84d344adc4bcd",
      "blockNumber": "0x23410aa",
      "gasUsed": "0x11226",
      "effectiveGasPrice": "0x124f80",
      "blobGasUsed": "0x79e0",
      "from": "0x679a295b982e75c1060bce840ca8044ffd340eaf",
      "to": "0x72338d8859884b4ceeae68651e8b8e49812f2fee",
      "contractAddress": null,
      "daFootprintGasScalar": "0x138",
      "l1BaseFeeScalar": "0x44d",
      "l1BlobBaseFee": "0x411ef21",
      "l1BlobBaseFeeScalar": "0xa118b",
      "l1Fee": "0x181a777fd",
      "l1GasPrice": "0x4277f9d3",
      "l1GasUsed": "0x640"
    },
    {
      "status": "0x1",
      "cumulativeGasUsed": "0x7434c1",
      "logs": [
        {
          "address": "0x72338d8859884b4ceeae68651e8b8e49812f2fee",
          "topics": [
            "0xddf252ad1be2c89b69c2b068fc378daa952ba7f163c4a11628f55a4df523b3ef",
            "0x0000000000000000000000000000000000000000000000000000000000000000",
            "0x000000000000000000000000abcebe28bbe3bc66e81c46cd5e9a7dde15033783"
          ],
          "data": "0x000000000000000000000000000000000000000000000000000000e8d4a51000",
          "blockHash": "0x2bcbefd49a457d76b9d87de1376f7032dffaf1d613227a05aca84d344adc4bcd",
          "blockNumber": "0x23410aa",
          "blockTimestamp": "0x697b8034",
          "transactionHash": "0x804cc07649500fdefd6edca38e4b5fa94d26db867dbbbf2d103e363f0ddaa7f1",
          "transactionIndex": "0x10",
          "logIndex": "0x6c",
          "removed": false
        }
      ],
      "logsBloom": "0x00000000000000000000000000000000000000000000000000000000000000000000000000000000000000000000000000000000000000000000000000000000000000000000000000000008000000000000008000000000000000000000000000000000020000000000000000000800000000040000000000000010000000000000000000008000000000000000000000000000000000000000000000000080000000000000000000000000000080000000000000000000000000000000000000000002000000000000000000000000200000000000000000000000000020000000000000000000000000000000000000000000000000000000000000000000",
      "type": "0x2",
      "transactionHash": "0x804cc07649500fdefd6edca38e4b5fa94d26db867dbbbf2d103e363f0ddaa7f1",
      "transactionIndex": "0x10",
      "blockHash": "0x2bcbefd49a457d76b9d87de1376f7032dffaf1d613227a05aca84d344adc4bcd",
      "blockNumber": "0x23410aa",
      "gasUsed": "0xcf5a",
      "effectiveGasPrice": "0x124f80",
      "blobGasUsed": "0x79e0",
      "from": "0x679a295b982e75c1060bce840ca8044ffd340eaf",
      "to": "0x72338d8859884b4ceeae68651e8b8e49812f2fee",
      "contractAddress": null,
      "daFootprintGasScalar": "0x138",
      "l1BaseFeeScalar": "0x44d",
      "l1BlobBaseFee": "0x411ef21",
      "l1BlobBaseFeeScalar": "0xa118b",
      "l1Fee": "0x181a777fd",
      "l1GasPrice": "0x4277f9d3",
      "l1GasUsed": "0x640"
    },
    {
      "status": "0x1",
      "cumulativeGasUsed": "0x75041b",
      "logs": [
        {
          "address": "0x72338d8859884b4ceeae68651e8b8e49812f2fee",
          "topics": [
            "0xddf252ad1be2c89b69c2b068fc378daa952ba7f163c4a11628f55a4df523b3ef",
            "0x0000000000000000000000000000000000000000000000000000000000000000",
            "0x000000000000000000000000abc04f8807351b3bbc169eacb2624fc331ed2ce6"
          ],
          "data": "0x000000000000000000000000000000000000000000000000000000e8d4a51000",
          "blockHash": "0x2bcbefd49a457d76b9d87de1376f7032dffaf1d613227a05aca84d344adc4bcd",
          "blockNumber": "0x23410aa",
          "blockTimestamp": "0x697b8034",
          "transactionHash": "0xe124ed2e5ec75dd2a8fc3f7691970a62d3fb7b8a5884c1dd90ffa646b0612b44",
          "transactionIndex": "0x11",
          "logIndex": "0x6d",
          "removed": false
        }
      ],
      "logsBloom": "0x00000000000000000000000000000000000000000000000000000000000000000000000000000000000000000000000000000000000040000000000000000000000000000000000000000008000000000000008000000000000000000000000000000000020000000000000000000800000000040000000000000010000000000000000000000000000000000000000000000000000000000000000000000080000000000000000000000000000000000000000000000000000000000000000000000002000000000000000000000000000000000000002000000000000020000000000000000008000000000000000000000000000000000000000000000000",
      "type": "0x2",
      "transactionHash": "0xe124ed2e5ec75dd2a8fc3f7691970a62d3fb7b8a5884c1dd90ffa646b0612b44",
      "transactionIndex": "0x11",
      "blockHash": "0x2bcbefd49a457d76b9d87de1376f7032dffaf1d613227a05aca84d344adc4bcd",
      "blockNumber": "0x23410aa",
      "gasUsed": "0xcf5a",
      "effectiveGasPrice": "0x124f80",
      "blobGasUsed": "0x79e0",
      "from": "0x679a295b982e75c1060bce840ca8044ffd340eaf",
      "to": "0x72338d8859884b4ceeae68651e8b8e49812f2fee",
      "contractAddress": null,
      "daFootprintGasScalar": "0x138",
      "l1BaseFeeScalar": "0x44d",
      "l1BlobBaseFee": "0x411ef21",
      "l1BlobBaseFeeScalar": "0xa118b",
      "l1Fee": "0x181a777fd",
      "l1GasPrice": "0x4277f9d3",
      "l1GasUsed": "0x640"
    },
    {
      "status": "0x1",
      "cumulativeGasUsed": "0x75d375",
      "logs": [
        {
          "address": "0x72338d8859884b4ceeae68651e8b8e49812f2fee",
          "topics": [
            "0xddf252ad1be2c89b69c2b068fc378daa952ba7f163c4a11628f55a4df523b3ef",
            "0x0000000000000000000000000000000000000000000000000000000000000000",
            "0x000000000000000000000000abc036b5b7a10546a95963680cb0a45d976fdf48"
          ],
          "data": "0x000000000000000000000000000000000000000000000000000000e8d4a51000",
          "blockHash": "0x0000000000000000000000000000000000000000000000000000000000000000",
          "blockNumber": "0x23410aa",
          "blockTimestamp": "0x697b8034",
          "transactionHash": "0xff4fdbb9f3792d5ff64cae9291616c23821cb12464e82c52e0885fc6a7971658",
          "transactionIndex": "0x12",
          "logIndex": "0x6e",
          "removed": false
        }
      ],
      "logsBloom": "0x00000000000000000000000000000000000000000000000000000000000000000000000000000000000000000000000000000000000000000000000000000000000000000000000000000008000000000040008000000000000000000000000000000000020000000000000000000800000000040000000000000010000000000000000000000000000000000000000000000000000000000000000000000080000000000000000000000000000000000000000000000000000000000000000000000002000000000000000000040000000000000000000000000000000020000000000000040000000000000000000000000000000000000000000000000000",
      "type": "0x2",
      "transactionHash": "0xff4fdbb9f3792d5ff64cae9291616c23821cb12464e82c52e0885fc6a7971658",
      "transactionIndex": "0x12",
      "blockHash": "0x0000000000000000000000000000000000000000000000000000000000000000",
      "blockNumber": "0x23410aa",
      "gasUsed": "0xcf5a",
      "effectiveGasPrice": "0x124f80",
      "blobGasUsed": "0x79e0",
      "from": "0x679a295b982e75c1060bce840ca8044ffd340eaf",
      "to": "0x72338d8859884b4ceeae68651e8b8e49812f2fee",
      "contractAddress": null,
      "daFootprintGasScalar": "0x138",
      "l1BaseFeeScalar": "0x44d",
      "l1BlobBaseFee": "0x411ef21",
      "l1BlobBaseFeeScalar": "0xa118b",
      "l1Fee": "0x353473e883",
      "l1GasPrice": "0x4277f9d3",
      "l1GasUsed": "0x640"
    }
  ],
  "libraries": [],
  "pending": [],
  "returns": {},
  "timestamp": 1769701427312,
  "chain": 84532,
  "commit": "5e0ce78"
}